### HOW TO CONFIGURE THE PLUGIN AFTER IT HAS BEEN ENABLED:
### Using the Vault CLI

```
vault write -format=json vault-ethereum/config  rpc_url=http://ganache:8545 chain_id=5777

```
### Sample Response


```json
{
  "bound_cidr_list": null,
  "chain_id": "5777",
  "exclusions": null,
  "inclusions": null,
  "rpc_url": "http://ganache:8545"
}
```

### HOW TO CREATE AN ACCOUNT NAMED BOB USING A MNEMONIC:
### Using the Vault CLI

```
vault write -format=json 'vault-ethereum'/accounts/bob mnemonic='volcano story trust file before member board recycle always draw fiction when'

```
### Sample Response


```json
{
  "address": "0x90259301a101A380F7138B50b6828cfFfd4Cbf60",
  "exclusions": null,
  "inclusions": null
}
```

### 1: GET  BOBS ADDRESS:
### Using the Vault CLI

```
vault read -format=json vault-ethereum/accounts/bob

```
### Sample Response


```
"0x90259301a101A380F7138B50b6828cfFfd4Cbf60"
```

### HOW TO CREATE AN ACCOUNT NAMED ALICE WITH NO MNEMONIC:
### Using the Vault CLI

```
vault write -f -format=json vault-ethereum/accounts/alice

```
### Sample Response


```json
{
  "address": "0xa6563cd02d14eB74a2e385cd96feD04bcaf2c5C1",
  "exclusions": null,
  "inclusions": null
}
```

### HOW TO TRANSFER 0.5 ETH FROM BOB TO ALICE:
### 1: CONVERT 0.5 ETH TO WEI:
### Using the Vault CLI

```
vault write -format=json vault-ethereum/convert unit_from=ETH unit_to=WEI amount=0.5

```
### Sample Response


```json
{
  "amount_from": "0.5",
  "amount_to": "500000000000000000",
  "unit_from": "ether",
  "unit_to": "wei"
}
```

Amount "500000000000000000"
### 2: GET ALICES ADDRESS:
### Using the Vault CLI

```
vault read -format=json vault-ethereum/accounts/alice

```
### Sample Response


```
"0xa6563cd02d14eB74a2e385cd96feD04bcaf2c5C1"
```

### 3: SEND BOBS ETH TO ALICE:
### Using the Vault CLI

```
vault write -format=json vault-ethereum/accounts/bob/transfer to="0xa6563cd02d14eB74a2e385cd96feD04bcaf2c5C1" amount="500000000000000000"

```
### Sample Response


```json
{
  "amount": "500000000000000000",
  "from": "0x90259301a101A380F7138B50b6828cfFfd4Cbf60",
  "gas_limit": "21000",
  "gas_price": "20000000000",
  "nonce": "11",
  "signed_transaction": "0xf86c0b8504a817c80082520894a6563cd02d14eb74a2e385cd96fed04bcaf2c5c18806f05b59d3b20000801ca085b6dba198ad672c0789d728545052d85c760b3106d16773a5e001103fefaf8aa07e31f9902af7678a674981908d48da3218c74d652cde4d98892e26f18890c54d",
  "to": "0xa6563cd02d14eB74a2e385cd96feD04bcaf2c5C1",
  "transaction_hash": "0x8eb44c87a40007dd991002218e272c693129ffa9e19d4685146f94d6cfcc73dd"
}
```

### HOW TO CHECK BALANCE OF THE ACCOUNT NAMED BOB:
### Using the Vault CLI

```
vault read -format=json 'vault-ethereum'/accounts/bob/balance

```
### Sample Response


```json
{
  "address": "0x90259301a101A380F7138B50b6828cfFfd4Cbf60",
  "balance": "96434141620000000000"
}
```

### HOW TO SIGN A TRANSACTION WITH DATA:
### Using the Vault CLI

```
vault write -format=json 'vault-ethereum'/accounts/alice/sign-tx to='"0x90259301a101A380F7138B50b6828cfFfd4Cbf60"' data='f86d8202b28477359400825208944592d8f8d7b001e72cb26a73e4fa1806a51ac79d880de0b6b3a7640000802ca05924bde7ef10aa88db9c66dd4f5fb16b46dff2319b9968be983118b57bb50562a001b24b31010004f13d9a26b320845257a6cfc2bf819a3d55e3fc86263c5f0772' amount=20000000000000000

```
### Sample Response


```json
{
  "amount": "20000000000000000",
  "from": "0xa6563cd02d14eB74a2e385cd96feD04bcaf2c5C1",
  "gas_limit": "21000",
  "gas_price": "20000000000",
  "nonce": "0",
  "signed_transaction": "0xf9014a808504a817c80082520894000000000000000000000000000000000000000087470de4df820000b8de6638366438323032623238343737333539343030383235323038393434353932643866386437623030316537326362323661373365346661313830366135316163373964383830646530623662336137363430303030383032636130353932346264653765663130616138386462396336366464346635666231366234366466663233313962393936386265393833313138623537626235303536326130303162323462333130313030303466313364396132366233323038343532353761366366633262663831396133643535653366633836323633633566303737321ba0d470f6071f90eceea98a3cc8cbda86992e3726904fb7e167fe3fef52f69392cca0641fc7b54240d2001eae7eff0e08807f96926d63cc81ef425e6d3c754b7261c0",
  "to": "0x0000000000000000000000000000000000000000",
  "transaction_hash": "0xf5cd934825d02d70229e9f8084b6cfac067455d5dbff462b6c6c177bb7414d28"
}
```

### HOW TO SIGN MESSAGE. Message signature can be verify on: https://etherscan.io/verifySig/2156:
### Using the Vault CLI

```
vault write -format=json 'vault-ethereum'/accounts/bob/sign message='HOLA VAULT'

```
### Sample Response


```json
{
  "address": "0x90259301a101a380f7138b50b6828cfffd4cbf60",
  "hashedMessage": "0x916195f5e434a5ac99bda30311516c98e3896c96e8e63e0fb7771584b7bd6b07",
  "signature": "0x79747d2859bb3c7305b33b4dae171c1f7d0f01821cbf0577577956e135c046bf0e53618cb373afd0ab92a7a13e566ebdb94f39d3ec738885d6d7f26d3c12393400"
}
```

### DEPLOY CONTRACT FixedSupplyToken:
### Using the Vault CLI

```
vault write -format=json 'vault-ethereum'/accounts/bob/deploy abi=@'/Users/immutability/projects/go/src/github.com/immutability-io/vault-ethereum/docker/erc20/build/FixedSupplyToken.abi' bin=@'/Users/immutability/projects/go/src/github.com/immutability-io/vault-ethereum/docker/erc20/build/FixedSupplyToken.bin'

```
### Sample Response


```json
{
  "contract": "0x20c60ac10d9c0E8a9044799677F413b85241d187",
  "from": "0x90259301a101A380F7138B50b6828cfFfd4Cbf60",
  "gas_limit": "1380521",
  "gas_price": "20000000000",
  "nonce": "12",
  "signed_transaction": "0xf918ab0c8504a817c800831510a98080b9185860806040523480156200001157600080fd5b50336000806101000a81548173ffffffffffffffffffffffffffffffffffffffff021916908373ffffffffffffffffffffffffffffffffffffffff1602179055506040518060400160405280600581526020017f4649584544000000000000000000000000000000000000000000000000000000815250600290805190602001906200009f92919062000221565b506040518060400160405280601a81526020017f4578616d706c6520466978656420537570706c7920546f6b656e00000000000081525060039080519060200190620000ed92919062000221565b506012600460006101000a81548160ff021916908360ff160217905550600460009054906101000a900460ff1660ff16600a0a620f424002600581905550600554600660008060009054906101000a900473ffffffffffffffffffffffffffffffffffffffff1673ffffffffffffffffffffffffffffffffffffffff1673ffffffffffffffffffffffffffffffffffffffff168152602001908152602001600020819055506000809054906101000a900473ffffffffffffffffffffffffffffffffffffffff1673ffffffffffffffffffffffffffffffffffffffff16600073ffffffffffffffffffffffffffffffffffffffff167fddf252ad1be2c89b69c2b068fc378daa952ba7f163c4a11628f55a4df523b3ef6005546040518082815260200191505060405180910390a3620002d0565b828054600181600116156101000203166002900490600052602060002090601f016020900481019282601f106200026457805160ff191683800117855562000295565b8280016001018555821562000295579182015b828111156200029457825182559160200191906001019062000277565b5b509050620002a49190620002a8565b5090565b620002cd91905b80821115620002c9576000816000905550600101620002af565b5090565b90565b61157880620002e06000396000f3fe6080604052600436106100e85760003560e01c80638da5cb5b1161008a578063d4ee1d9011610059578063d4ee1d90146105bf578063dc39d06d14610616578063dd62ed3e14610689578063f2fde38b1461070e576100e8565b80638da5cb5b1461035b57806395d89b41146103b2578063a9059cbb14610442578063cae9ca51146104b5576100e8565b806323b872dd116100c657806323b872dd1461021b578063313ce567146102ae57806370a08231146102df57806379ba509714610344576100e8565b806306fdde03146100ed578063095ea7b31461017d57806318160ddd146101f0575b600080fd5b3480156100f957600080fd5b5061010261075f565b6040518080602001828103825283818151815260200191508051906020019080838360005b83811015610142578082015181840152602081019050610127565b50505050905090810190601f16801561016f5780820380516001836020036101000a031916815260200191505b509250505060405180910390f35b34801561018957600080fd5b506101d6600480360360408110156101a057600080fd5b81019080803573ffffffffffffffffffffffffffffffffffffffff169060200190929190803590602001909291905050506107fd565b604051808215151515815260200191505060405180910390f35b3480156101fc57600080fd5b506102056108ef565b6040518082815260200191505060405180910390f35b34801561022757600080fd5b506102946004803603606081101561023e57600080fd5b81019080803573ffffffffffffffffffffffffffffffffffffffff169060200190929190803573ffffffffffffffffffffffffffffffffffffffff1690602001909291908035906020019092919050505061094a565b604051808215151515815260200191505060405180910390f35b3480156102ba57600080fd5b506102c3610bf5565b604051808260ff1660ff16815260200191505060405180910390f35b3480156102eb57600080fd5b5061032e6004803603602081101561030257600080fd5b81019080803573ffffffffffffffffffffffffffffffffffffffff169060200190929190505050610c08565b6040518082815260200191505060405180910390f35b34801561035057600080fd5b50610359610c51565b005b34801561036757600080fd5b50610370610dee565b604051808273ffffffffffffffffffffffffffffffffffffffff1673ffffffffffffffffffffffffffffffffffffffff16815260200191505060405180910390f35b3480156103be57600080fd5b506103c7610e13565b6040518080602001828103825283818151815260200191508051906020019080838360005b838110156104075780820151818401526020810190506103ec565b50505050905090810190601f1680156104345780820380516001836020036101000a031916815260200191505b509250505060405180910390f35b34801561044e57600080fd5b5061049b6004803603604081101561046557600080fd5b81019080803573ffffffffffffffffffffffffffffffffffffffff16906020019092919080359060200190929190505050610eb1565b604051808215151515815260200191505060405180910390f35b3480156104c157600080fd5b506105a5600480360360608110156104d857600080fd5b81019080803573ffffffffffffffffffffffffffffffffffffffff169060200190929190803590602001909291908035906020019064010000000081111561051f57600080fd5b82018360208201111561053157600080fd5b8035906020019184600183028401116401000000008311171561055357600080fd5b91908080601f016020809104026020016040519081016040528093929190818152602001838380828437600081840152601f19601f82011690508083019250505050505050919291929050505061104c565b604051808215151515815260200191505060405180910390f35b3480156105cb57600080fd5b506105d461127f565b604051808273ffffffffffffffffffffffffffffffffffffffff1673ffffffffffffffffffffffffffffffffffffffff16815260200191505060405180910390f35b34801561062257600080fd5b5061066f6004803603604081101561063957600080fd5b81019080803573ffffffffffffffffffffffffffffffffffffffff169060200190929190803590602001909291905050506112a5565b604051808215151515815260200191505060405180910390f35b34801561069557600080fd5b506106f8600480360360408110156106ac57600080fd5b81019080803573ffffffffffffffffffffffffffffffffffffffff169060200190929190803573ffffffffffffffffffffffffffffffffffffffff1690602001909291905050506113eb565b6040518082815260200191505060405180910390f35b34801561071a57600080fd5b5061075d6004803603602081101561073157600080fd5b81019080803573ffffffffffffffffffffffffffffffffffffffff169060200190929190505050611472565b005b60038054600181600116156101000203166002900480601f0160208091040260200160405190810160405280929190818152602001828054600181600116156101000203166002900480156107f55780601f106107ca576101008083540402835291602001916107f5565b820191906000526020600020905b8154815290600101906020018083116107d857829003601f168201915b505050505081565b600081600760003373ffffffffffffffffffffffffffffffffffffffff1673ffffffffffffffffffffffffffffffffffffffff16815260200190815260200160002060008573ffffffffffffffffffffffffffffffffffffffff1673ffffffffffffffffffffffffffffffffffffffff168152602001908152602001600020819055508273ffffffffffffffffffffffffffffffffffffffff163373ffffffffffffffffffffffffffffffffffffffff167f8c5be1e5ebec7d5bd14f71427d1e84f3dd0314c0f7b2291e5b200ac8c7c3b925846040518082815260200191505060405180910390a36001905092915050565b6000610945600660008073ffffffffffffffffffffffffffffffffffffffff1673ffffffffffffffffffffffffffffffffffffffff1681526020019081526020016000205460055461150f90919063ffffffff16565b905090565b600061099e82600660008773ffffffffffffffffffffffffffffffffffffffff1673ffffffffffffffffffffffffffffffffffffffff1681526020019081526020016000205461150f90919063ffffffff16565b600660008673ffffffffffffffffffffffffffffffffffffffff1673ffffffffffffffffffffffffffffffffffffffff16815260200190815260200160002081905550610a7082600760008773ffffffffffffffffffffffffffffffffffffffff1673ffffffffffffffffffffffffffffffffffffffff16815260200190815260200160002060003373ffffffffffffffffffffffffffffffffffffffff1673ffffffffffffffffffffffffffffffffffffffff1681526020019081526020016000205461150f90919063ffffffff16565b600760008673ffffffffffffffffffffffffffffffffffffffff1673ffffffffffffffffffffffffffffffffffffffff16815260200190815260200160002060003373ffffffffffffffffffffffffffffffffffffffff1673ffffffffffffffffffffffffffffffffffffffff16815260200190815260200160002081905550610b4282600660008673ffffffffffffffffffffffffffffffffffffffff1673ffffffffffffffffffffffffffffffffffffffff1681526020019081526020016000205461152990919063ffffffff16565b600660008573ffffffffffffffffffffffffffffffffffffffff1673ffffffffffffffffffffffffffffffffffffffff168152602001908152602001600020819055508273ffffffffffffffffffffffffffffffffffffffff168473ffffffffffffffffffffffffffffffffffffffff167fddf252ad1be2c89b69c2b068fc378daa952ba7f163c4a11628f55a4df523b3ef846040518082815260200191505060405180910390a3600190509392505050565b600460009054906101000a900460ff1681565b6000600660008373ffffffffffffffffffffffffffffffffffffffff1673ffffffffffffffffffffffffffffffffffffffff168152602001908152602001600020549050919050565b600160009054906101000a900473ffffffffffffffffffffffffffffffffffffffff1673ffffffffffffffffffffffffffffffffffffffff163373ffffffffffffffffffffffffffffffffffffffff1614610cab57600080fd5b600160009054906101000a900473ffffffffffffffffffffffffffffffffffffffff1673ffffffffffffffffffffffffffffffffffffffff166000809054906101000a900473ffffffffffffffffffffffffffffffffffffffff1673ffffffffffffffffffffffffffffffffffffffff167f8be0079c531659141344cd1fd0a4f28419497f9722a3daafe3b4186f6b6457e060405160405180910390a3600160009054906101000a900473ffffffffffffffffffffffffffffffffffffffff166000806101000a81548173ffffffffffffffffffffffffffffffffffffffff021916908373ffffffffffffffffffffffffffffffffffffffff1602179055506000600160006101000a81548173ffffffffffffffffffffffffffffffffffffffff021916908373ffffffffffffffffffffffffffffffffffffffff160217905550565b6000809054906101000a900473ffffffffffffffffffffffffffffffffffffffff1681565b60028054600181600116156101000203166002900480601f016020809104026020016040519081016040528092919081815260200182805460018160011615610100020316600290048015610ea95780601f10610e7e57610100808354040283529160200191610ea9565b820191906000526020600020905b815481529060010190602001808311610e8c57829003601f168201915b505050505081565b6000610f0582600660003373ffffffffffffffffffffffffffffffffffffffff1673ffffffffffffffffffffffffffffffffffffffff1681526020019081526020016000205461150f90919063ffffffff16565b600660003373ffffffffffffffffffffffffffffffffffffffff1673ffffffffffffffffffffffffffffffffffffffff16815260200190815260200160002081905550610f9a82600660008673ffffffffffffffffffffffffffffffffffffffff1673ffffffffffffffffffffffffffffffffffffffff1681526020019081526020016000205461152990919063ffffffff16565b600660008573ffffffffffffffffffffffffffffffffffffffff1673ffffffffffffffffffffffffffffffffffffffff168152602001908152602001600020819055508273ffffffffffffffffffffffffffffffffffffffff163373ffffffffffffffffffffffffffffffffffffffff167fddf252ad1be2c89b69c2b068fc378daa952ba7f163c4a11628f55a4df523b3ef846040518082815260200191505060405180910390a36001905092915050565b600082600760003373ffffffffffffffffffffffffffffffffffffffff1673ffffffffffffffffffffffffffffffffffffffff16815260200190815260200160002060008673ffffffffffffffffffffffffffffffffffffffff1673ffffffffffffffffffffffffffffffffffffffff168152602001908152602001600020819055508373ffffffffffffffffffffffffffffffffffffffff163373ffffffffffffffffffffffffffffffffffffffff167f8c5be1e5ebec7d5bd14f71427d1e84f3dd0314c0f7b2291e5b200ac8c7c3b925856040518082815260200191505060405180910390a38373ffffffffffffffffffffffffffffffffffffffff16638f4ffcb1338530866040518563ffffffff1660e01b8152600401808573ffffffffffffffffffffffffffffffffffffffff1673ffffffffffffffffffffffffffffffffffffffff1681526020018481526020018373ffffffffffffffffffffffffffffffffffffffff1673ffffffffffffffffffffffffffffffffffffffff16815260200180602001828103825283818151815260200191508051906020019080838360005b8381101561120d5780820151818401526020810190506111f2565b50505050905090810190601f16801561123a5780820380516001836020036101000a031916815260200191505b5095505050505050600060405180830381600087803b15801561125c57600080fd5b505af1158015611270573d6000803e3d6000fd5b50505050600190509392505050565b600160009054906101000a900473ffffffffffffffffffffffffffffffffffffffff1681565b60008060009054906101000a900473ffffffffffffffffffffffffffffffffffffffff1673ffffffffffffffffffffffffffffffffffffffff163373ffffffffffffffffffffffffffffffffffffffff161461130057600080fd5b8273ffffffffffffffffffffffffffffffffffffffff1663a9059cbb6000809054906101000a900473ffffffffffffffffffffffffffffffffffffffff16846040518363ffffffff1660e01b8152600401808373ffffffffffffffffffffffffffffffffffffffff1673ffffffffffffffffffffffffffffffffffffffff16815260200182815260200192505050602060405180830381600087803b1580156113a857600080fd5b505af11580156113bc573d6000803e3d6000fd5b505050506040513d60208110156113d257600080fd5b8101908080519060200190929190505050905092915050565b6000600760008473ffffffffffffffffffffffffffffffffffffffff1673ffffffffffffffffffffffffffffffffffffffff16815260200190815260200160002060008373ffffffffffffffffffffffffffffffffffffffff1673ffffffffffffffffffffffffffffffffffffffff16815260200190815260200160002054905092915050565b6000809054906101000a900473ffffffffffffffffffffffffffffffffffffffff1673ffffffffffffffffffffffffffffffffffffffff163373ffffffffffffffffffffffffffffffffffffffff16146114cb57600080fd5b80600160006101000a81548173ffffffffffffffffffffffffffffffffffffffff021916908373ffffffffffffffffffffffffffffffffffffffff16021790555050565b60008282111561151e57600080fd5b818303905092915050565b600081830190508281101561153d57600080fd5b9291505056fea265627a7a723058200926f39699dae5a1f57cb3fbcf7a56a3b06e907ae6e0e6b2d897f543a7dc32c864736f6c634300050a00321ca049a0e57af16d80ca5d3d2f12b2f5f07b29773f673242ea9655cc926c423a9fb8a02d64369682c3303a979c4e03a08e3c20428768dd6acf9e87ab806066d6579c2b",
  "transaction_hash": "0xf44c5588e3d98cce1eb0370e6d97982c547f4600d578f8cb00849e940891ed03"
}
```

### DEPLOY CONTRACT Owned:
### Using the Vault CLI

```
vault write -format=json 'vault-ethereum'/accounts/bob/deploy abi=@'/Users/immutability/projects/go/src/github.com/immutability-io/vault-ethereum/docker/erc20/build/Owned.abi' bin=@'/Users/immutability/projects/go/src/github.com/immutability-io/vault-ethereum/docker/erc20/build/Owned.bin'

```
### Sample Response


```json
{
  "contract": "0x0541323aeB045A4232D61DCEbB15243687528442",
  "from": "0x90259301a101A380F7138B50b6828cfFfd4Cbf60",
  "gas_limit": "292163",
  "gas_price": "20000000000",
  "nonce": "13",
  "signed_transaction": "0xf904a00d8504a817c800830475438080b9044d608060405234801561001057600080fd5b50336000806101000a81548173ffffffffffffffffffffffffffffffffffffffff021916908373ffffffffffffffffffffffffffffffffffffffff1602179055506103ed806100606000396000f3fe608060405234801561001057600080fd5b506004361061004c5760003560e01c806379ba5097146100515780638da5cb5b1461005b578063d4ee1d90146100a5578063f2fde38b146100ef575b600080fd5b610059610133565b005b6100636102d0565b604051808273ffffffffffffffffffffffffffffffffffffffff1673ffffffffffffffffffffffffffffffffffffffff16815260200191505060405180910390f35b6100ad6102f5565b604051808273ffffffffffffffffffffffffffffffffffffffff1673ffffffffffffffffffffffffffffffffffffffff16815260200191505060405180910390f35b6101316004803603602081101561010557600080fd5b81019080803573ffffffffffffffffffffffffffffffffffffffff16906020019092919050505061031b565b005b600160009054906101000a900473ffffffffffffffffffffffffffffffffffffffff1673ffffffffffffffffffffffffffffffffffffffff163373ffffffffffffffffffffffffffffffffffffffff161461018d57600080fd5b600160009054906101000a900473ffffffffffffffffffffffffffffffffffffffff1673ffffffffffffffffffffffffffffffffffffffff166000809054906101000a900473ffffffffffffffffffffffffffffffffffffffff1673ffffffffffffffffffffffffffffffffffffffff167f8be0079c531659141344cd1fd0a4f28419497f9722a3daafe3b4186f6b6457e060405160405180910390a3600160009054906101000a900473ffffffffffffffffffffffffffffffffffffffff166000806101000a81548173ffffffffffffffffffffffffffffffffffffffff021916908373ffffffffffffffffffffffffffffffffffffffff1602179055506000600160006101000a81548173ffffffffffffffffffffffffffffffffffffffff021916908373ffffffffffffffffffffffffffffffffffffffff160217905550565b6000809054906101000a900473ffffffffffffffffffffffffffffffffffffffff1681565b600160009054906101000a900473ffffffffffffffffffffffffffffffffffffffff1681565b6000809054906101000a900473ffffffffffffffffffffffffffffffffffffffff1673ffffffffffffffffffffffffffffffffffffffff163373ffffffffffffffffffffffffffffffffffffffff161461037457600080fd5b80600160006101000a81548173ffffffffffffffffffffffffffffffffffffffff021916908373ffffffffffffffffffffffffffffffffffffffff1602179055505056fea265627a7a72305820d48bb346f756f1b4c514d0cb6670a26b563bf5d9eb222548a5eb56d86218f01b64736f6c634300050a00321ca03af8e46775da093470cc8fb830eb95c37ac87af93ccad998e4db5828c35cd218a0739b22c74b2b776d84f3965baf0cf3da19f653a5c6e6fda984c4ec692908b038",
  "transaction_hash": "0x5254ce4cb3d5dc44af5a91415725e488f149fbb05a6fc99117876aba2614346e"
}
```

### DEPLOY CONTRACT SafeMath:
### Using the Vault CLI

```
vault write -format=json 'vault-ethereum'/accounts/bob/deploy abi=@'/Users/immutability/projects/go/src/github.com/immutability-io/vault-ethereum/docker/erc20/build/SafeMath.abi' bin=@'/Users/immutability/projects/go/src/github.com/immutability-io/vault-ethereum/docker/erc20/build/SafeMath.bin'

```
### Sample Response


```json
{
  "contract": "0x4B51D9340F3250971E8927bBF48ffD5f9cA99c5C",
  "from": "0x90259301a101A380F7138B50b6828cfFfd4Cbf60",
  "gas_limit": "71714",
  "gas_price": "20000000000",
  "nonce": "14",
  "signed_transaction": "0xf8ca0e8504a817c800830118228080b87860556023600b82828239805160001a607314601657fe5b30600052607381538281f3fe73000000000000000000000000000000000000000030146080604052600080fdfea265627a7a72305820a8567376629c47a3133e19c9c636472d6accc6b72662776af08e7395c3adea9164736f6c634300050a00321ba05cd9f7fbfac3dc1f4d2149025ab850c1876ac1c4b41b0f25ba973db60d4e98eba06994bbcf7b5f6c114efab40c055ca9bd5631a865ec11ddbbb4d83d2d45a489e2",
  "transaction_hash": "0x2c9fa741988aec663a8b0138989f21d393919b0f619b0b93b400399d5717624b"
}
```

### READ TOKEN 0x20c60ac10d9c0E8a9044799677F413b85241d187 TOTAL SUPPLY:
### Using the Vault CLI

```
vault read -format=json 'vault-ethereum'/accounts/bob/erc20/totalSupply contract='0x20c60ac10d9c0E8a9044799677F413b85241d187'

```
### Sample Response


```json
{
  "contract": "0x20c60ac10d9c0E8a9044799677F413b85241d187",
  "name": "Example Fixed Supply Token",
  "symbol": "FIXED",
  "total_supply": "1000000"
}
```

